:040000008031122811
:100008007E1480312000141C0A280B2810280D1695
:1000180014108631472680317E100900803114285B
:100028002000E901EA01EB01EC01ED01EE012100FC
:10003800A001A101A201A301A401A5017E10200035
:1000480086318E2E20003D088039C2004208C70044
:100058003D35C2004208CD00BC1F3328342835285E
:100068004D144D08031939283A2849284D0A031D0B
:100078003E283F2847280030BD000030BC00003033
:10008800BB000030BA00BC1751280030BD0000305A
:10009800BC000030BB000030BA0041088039C20003
:1000A8004208C7064135C2004208CC00C01F5D287F
:1000B8005E285F284C144C080319632864287328A9
:1000C8004C0A031D6828692871280030C1000030D7
:1000D800C0000030BF000030BE00C0177B280030D1
:1000E800C1000030C0000030BF000030BE004C0826
:1000F80003197F28802885284D08031D8428852812
:100108008E280030BD000030BC000030BB0000303D
:10011800BA007C2A3A08C2004208F000400886313A
:10012800B726803171082000D3007008D200520829
:10013800C200C301C401C5014508CB004408CA0078
:100148004308C9004208C8005308C200C301C401DB
:10015800C5014508D1004408D0004308CF00420833
:10016800CE003B08C2004208F0003F088631B7269F
:10017800803171082000D3007008D2005208C200F4
:10018800C301C401C5014208C8074308C93D440862
:10019800CA3D4508CB3D5308C200C301C401C5018F
:1001A8004208CE074308CF3D4408D03D4508D13D1D
:1001B8003C08C2004208F0003E088631B72680316C
:1001C80071082000D3007008D2005208C200C30191
:1001D800C401C5014208C8074308C93D4408CA3DCF
:1001E8004508CB3D5308C200C301C401C5014208FC
:1001F800CE074308CF3D4408D03D4508D13D0830DF
:10020800C835C90DCA0DCB0D890B04293B08C2009E
:100218004208F0003E088631B72680317108200078
:10022800D3007008D2005208C8075308C93D0030EF
:10023800CA3DCB3D3A08C2004208F0003F0886316B
:10024800B726803171082000D3007008D200520808
:10025800C8075308C93D0030CA3DCB3D0830C835F2
:10026800C90DCA0DCB0D890B33293A08C2004208C3
:10027800F0003E088631B726803171082000D3008F
:100288007008D2005208C8075308C93D0030CA3D5B
:10029800CB3D3B08C2004208F00040088631B72633
:1002A800803171082000D3007008D2005208CE07B0
:1002B8005308CF3D0030D03DD13D3C08C200420834
:1002C800F0003F088631B726803171082000D3003E
:1002D8007008D2005208CE075308CF3D0030D03DF9
:1002E800D13D3C08C2004208F00040088631B726DC
:1002F800803171082000D3007008D2005208C20073
:100308005308C300C401C5010830C235C30DC40D6C
:10031800C50D890B89294208CE074308CF3D4408FB
:10032800D03D4508D13D4808C2004908C3004A08E5
:10033800C4004B08C5001830C536C40CC30CC20C29
:10034800890BA0294208CE074308CF3D4408D03D79
:100358004508D13D0830C835C90DCA0DCB0D890BEC
:10036800AF294D084C07C200C301C30D4208823EA5
:10037800D200FF30433DD300D8290130CE35CF0D10
:10038800D00DD10D890BC229CB1FCB29CC29CD2962
:100398004E140130C835C90DCA0DCB0D890BCE29B5
:1003A800FF30D207FF30D33DD01FDB29DC29C1291C
:1003B800CC01CB1FE029E129FD29FF304805C20007
:1003C800FF304905C300FF304A05C4007F304B05A4
:1003D800C50045084404430442040319F429F529D7
:1003E800F829CC01CC0AFD294E1CFB29FC29FD2942
:1003F800F5294C080319012A022A2A2A0130CE07B6
:100408000030CF3D0030D03D0030D13D511C0D2A89
:100418000E2A2A2A4E08C2004F08C3005008C400FA
:100428005108C5000130C600C537C40CC30CC20C46
:10043800C60B182A4508D1004408D0004308CF004D
:100448004208CE000130D2070030D33D5308803A2D
:10045800C20080304202031D332AFF305202031CBF
:10046800362A372A412A7F302000D1008030D00038
:100478000030CF000030CE00702A20005308803AA8
:10048800C20080304202031D4B2A01305202031879
:100498004E2A4F2A5A2A00302000D1000030D000BE
:1004A8000030CF000030CE00C701702A200052086B
:1004B800C2004208CD00FF30CE05FF30CF057F30A7
:1004C800D0050030D1054D1C6A2A6B2A6C2AD0173A
:1004D8004D36C2004208D1004708C2004208D10484
:1004E8005108BD005008BC004F08BB004E08BA00B8
:1004F8000800200027088039A8002808B1002735FF
:10050800A8002808B800A61F8A2A8B2A8C2A381423
:1005180038080319902A912AA12A380A031D952A16
:10052800962A9E2A0030A7000030A6000030A500B9
:100538000030A400A617A701A92A0030A7000030A0
:10054800A6000030A5000030A40023088039A800C8
:100558002808B1062335A8002808B900A21FB52A23
:10056800B62AB72A391439080319BB2ABC2ACC2A57
:10057800390A031DC02AC12AC92A0030A300003045
:10058800A2000030A1000030A000A217A301D42AC5
:100598000030A3000030A2000030A1000030A0000D
:1005A8002308220421042004031DDB2ADC2AF52A5F
:1005B8000030A7000030A6000030A5000030A400DD
:1005C8008030A6047F30A7043108A8002808A704B3
:1005D8002708A3002608A2002508A1002408A000D7
:1005E800302C3808031DF92AFA2A032B0030A300FF
:1005F8000030A2000030A1000030A000302C3808E4
:10060800A800A9012908AB0039082802AA00031C80
:10061800AB032A087F3EB20000302B3DB300270809
:10062800B0002608AF002508AE002408AD00003051
:10063800A7000030A6000030A5000030A40000305C
:10064800B7000030B6000030B5000030B400B90182
:100658006B2B39080319312B322B4C2B0130AD355C
:10066800AE0DAF0DB00D890B332B0130A435A50DA0
:10067800A60DA70D890B3A2BB71F432B442B452BEF
:1006880024140130B435B50DB60DB70D890B462BC2
:1006980023083002031D5A2B22082F02031D5A2B50
:1006A80021082E02031D5A2B20082D02031C5D2B46
:1006B8005E2B672B37172008AD022108AE3B2208B6
:1006C800AF3B2308B03B0130A8002808B9071A300F
:1006D8003902031C702B712B2D2B30082F042E048C
:1006E8002D040319782B792B922B3414922B01307B
:1006F800A435A50DA60DA70D890B7C2BB71F852B3F
:10070800862B872B24140130B435B50DB60DB70DE3
:10071800890B882BFF30B207FF30B33DA61F952BFE
:10072800962B7B2BB901B71F9A2B9B2BB72BFF302E
:100738003405A800FF303505A900FF303605AA00AA
:100748007F303705AB002B082A0429042804031935
:10075800AE2BAF2BB22BB901B90AB72B241CB52B82
:10076800B62BB72BAF2B39080319BB2BBC2BE42BAB
:100778000130A4070030A53D0030A63D0030A73D5C
:10078800271CC72BC82BE42B2408A8002508A90080
:100798002608AA002708AB000130AC00AB37AA0C2A
:1007A800A90CA80CAC0BD22B2B08A7002A08A60072
:1007B8002908A5002808A4000130B2070030B33D7D
:1007C8003308803AA80080302802031DED2BFF3043
:1007D8003202031CF02BF12BFE2BFF302000B2005D
:1007E8000030B3000030A7000030A6000030A5009C
:1007F8000030A40020003308803AA8008030280286
:10080800031D082C0130320203180B2C0C2C182C59
:100818002000B201B3010030A7000030A60000306C
:10082800A5000030A400B10120003208A800280863
:10083800B800381C202C212C232CA617272C7F30FD
:10084800A8002808A6053836A8002808A7003108F7
:10085800A8002808A704EC2A080020006008E20085
:100868005F08E1000730E236E10C890B372C0130D4
:100878006105E90000306205EA0069086A040319A5
:10088800462C472CB82CDF09E009DF0A0319E00AD7
:100898005F08F0006008F100F201F30100308531D3
:1008A8002625843173082000A7007208A600710865
:1008B800A5007008A4004230A300FE30A20000305A
:1008C800A1000030A00082317D228431200023085D
:1008D800C1002208C0002108BF002008BE00403027
:1008E800BD008030BC000030BB000030BA00803151
:1008F8002620843120003D08E6003C08E5003B083E
:10090800E4003A08E3006608C1006508C00064080E
:10091800BF006308BE004330BD008030BC0000301B
:10092800BB000030BA0080312620843120003D0809
:10093800D7003C08D6003B08D5003A08D4008531DA
:10094800D225843120005508EC005408EB006C08CF
:10095800E2006B08E100E236E10CE236E10C6108E6
:10096800260091009801252D5F08F0006008F1002D
:10097800F201F30100308531262584317308200007
:10098800A7007208A6007108A5007008A4004230EC
:10099800A300FE30A2000030A1000030A000823188
:1009A8007D22843120002308C1002208C0002108CC
:1009B800BF002008BE004030BD008030BC000030C1
:1009C800BB000030BA0080312620843120003D0869
:1009D800E6003C08E5003B08E4003A08E300660846
:1009E800C1006508C0006408BF006308BE0043304A
:1009F800BD008030BC000030BB000030BA00803140
:100A08002620843120003D08D7003C08D6003B084A
:100A1800D5003A08D4008531D22584312000550804
:100A2800EC005408EB002600910120006C08E2005D
:100A38006B08E100E236E10CE236E10C61082600C1
:100A480098000800F800780803192B2D2C2D402D4C
:100A5800F31F2F2D302D402D7009FA007109FB006E
:100A68007209FC007309FD00FA0A0319FB0A03194D
:100A7800FC0A0319FD0A482D7308FD007208FC00E2
:100A88007108FB007008FA0073087204710470049E
:100A9800031D4F2D502D592D0030F3000030F2006A
:100AA8000030F1000030F000D12D9630F4007408C9
:100AB800F900692D0130F4007408F9070130FD369A
:100AC800FC0CFB0CFA0C890B632DFE307D05031D15
:100AD8006E2D6F2D5E2D832D0130F4007408F907FB
:100AE8000130FA070030FB3D0030FC3D0030FD3D91
:100AF8000130FD36FC0CFB0CFA0C890B7D2DFF3008
:100B08007D05031D882D892D702D932D0130F90247
:100B18000130FA35FB0DFC0DFD0D890B8D2DFC1BED
:100B2800962D972D9D2D0230790203189C2D9D2D11
:100B38008A2D7918A02DA12DA92DFF30FA05FF3097
:100B4800FB057F30FC05FF30FD050310F90C790823
:100B5800F400F501F601F7011830F435F50DF60D3E
:100B6800F70D890BB12D7408FA047508FB04760893
:100B7800FC047708FD0478080319C32DC42DC92D7A
:100B8800F31FC72DC82DC92DFD177D08F3007C085C
:100B9800F2007B08F1007A08F0000800031020003A
:100BA800560D570DD8005808DE005E08031DDD2DD0
:100BB800DE2DE72D0030D7000030D6000030D500FC
:100BC8000030D400462E5408D8005508D9005608DD
:100BD800DA005708DB001F30DB36DA0CD90CD80CEA
:100BE800890BF02D5808DC005C08DD00D617FF30B3
:100BF800D405FF30D505FF30D6050030D70596302F
:100C0800DE02DE1F082E092E212E5E08803A973E4E
:100C180003180F2E102E112EDE2D0130D736D60CCC
:100C2800D50CD40C890B122E0130D8005808DE07D9
:100C3800031D1F2E202E112E362E20305E02031C7F
:100C4800262E272E312EDE2D0130D435D50DD60D8A
:100C5800D70D890B292E0130DE025E08031D352EC3
:100C6800362E282E5D0803193A2E3B2E462ED4091F
:100C7800D509D609D709D40A0319D50A0319D60AFA
:100C88000319D70A080024001C082000E700670899
:100C9800EE006E082D39E7006708EE007D2E24006F
:100CA80019082000E7006708ED000D1624001D1F35
:100CB8005E2E5F2E602E1D131E1C632E642E8D2E3D
:100CC8001D168D2E240019082000E7006708ED0086
:100CD8006D08E700E8016708DF006808E000843174
:100CE8003124863124001E1C7A2E7B2E8D2E1D1653
:100CF8008D2E6E08E700E8016808003A0319852E72
:100D08008D2E6708093A0319532E203A0319662EC7
:100D18008D2E080021001908873970389900033092
:100D2800990424308D008C0123008C018D01200052
:100D38000D120C30260093000C309A00103025005C
:100D48009E00043020009C00043028009700FF30EB
:100D580020009B00FF30280096008631DA26863175
:100D6800B42E80311228F800F401F5017008F20061
:100D7800F3017208F6007308F700781CC42EC52E1C
:100D8800C92E7608F4077708F53D0130F635F70DDA
:100D9800890BCA2E0310F80C7808031DD42ED52E03
:100DA800C12E7508F1007408F000080026302400F0
:100DB8009D0001309E0008309A0080309C00200081
:100DC8001410210014140B178B1724009F01FE30F8
:040DD8009B00080074
:020000040001F9
:08000000FF3FFF3FFF3FFF3F00
:04000E00FF3FFF3F72
:00000001FF
